:020000020000FC
:100000000FE50DBF04E00EBFC1E0002701BB0FEFFD
:1000100000BB0FEF07BB0FEF08BB00C0809B11D0E8
:10002000819B15D0829B19D0839B1DD060FD21D070
:1000300070FD22D080FD23D090FD24D0879B39C055
:10004000EDCF60FF1C2F60FF219661E0089570FFE7
:100050002C2F70FF219671E0089580FF3C2F80FFC8
:10006000219681E0089590FF4C2F90FF219691E01A
:10007000089580990AC00895819907C008958299CA
:1000800004C00895839901C00895C1E060E070E064
:1000900080E090E010E020E030E040E00FEF00BBB7
:1000A000BDCFC1E060E070E080E090E0F0E0A1E072
:1000B0000895C13051F3879BFCCF002701BB0FEFA0
:1000C00000BB8099FECF01E0009508BB002701BB73
:1000D0000FEF00BBE6DF809B0DD0819B11D0829B90
:1000E00015D0839B19D04424F4110E94F400A5314B
:1000F000C9F0F1CF809BFECFF1E06C2F21960895DF
:10010000819BFECFF1E07C2F21960895829BFECF4C
:10011000F1E08C2F21960895839BFECFF1E09C2F78
:100120002196089502D0BDDF3AD016130895271303
:10013000089538130895491308950FEF02E00095CC
:1001400008BB00D0829B0DD0839B10D0849B13D022
:10015000859B16D0869B19D0879B1CD0819BB1DFD5
:10016000F1CF0FEF04E0009508BBFBCF0FEF0CE0E1
:10017000009508BBFBCF0FEF04E1009508BBFBCF58
:100180000FEF04E2009508BBFBCF0FEF04E40095EE
:1001900008BBFBCF0FEF04E8009508BBFBCF5A2E3E
:1001A0005694550C10D0A51111D0809BA3DF819BD4
:1001B000A7DF829BABDF839BAFDF4424F41114D015
:1001C000AB3049F0ECCF0FEF08BB08950FEF01E023
:1001D000009508BB0895A9DF00D00FEF08BB04D03D
:1001E000002708BB01D0F9CF1196089556E0B3E17E
:1001F000DEEADA95F1F7BA95E1F75A95D1F711965B
:1002000008955BE0B6E2DEE5DA95F1F7BA95E1F73D
:080210005A95D1F711960895EB
:00000001FF
